:020000040800F2
:10000000180C0020C90000086D040008B1030008A6
:1000100000000000000000000000000000000000E0
:10002000000000000000000000000000EF060008D3
:1000300000000000000000006F040008C90700086D
:10004000F900000800000000F9000008F9000008AD
:10005000F9000008F9000008F9000008F90000089C
:1000600000000000F9000008F9000008F90000088D
:10007000F9000008F9000008F9000008000000007D
:10008000F90000080000000000000000F90000086E
:10009000F9000008F9000008F9000008F90000085C
:1000A000F9000008F9000008F9000008F90000084C
:1000B000F90000080348854600F04EF80048004764
:1000C000F1090008180C00200C4880F308880C483F
:1000D0000168090E0B4A914205D10B480B4901609A
:1000E0000B480C4901600C4880470C480047FEE76C
:1000F000FEE7FEE7FEE7FEE7FEE70000180C002043
:10010000040000001F000000181002400100000061
:100110000000014000000000CD070008B500000805
:10012000D2B201E00270401C491EFBD2704700228F
:10013000F6E710B513460A4604461946FFF7F0FFE6
:10014000204610BD0321001D401E037812021A43F1
:10015000491EF9D510467047064C0125064E05E0AC
:10016000E36807CC2B430C3C98471034B442F7D3D8
:10017000FFF7A4FF900A0008B00A00080149C86010
:10018000704700000020024030B5044604250B20D3
:10019000000400F08FF80546042D17D10C480069C3
:1001A000022108430A490861084644610069402168
:1001B0000843074908610B20000400F07BF805465E
:1001C000034800690221884301490861284630BD7F
:1001D0000020024004200D49C968C907C90F002941
:1001E00001D0012010E00949C968102211400029FE
:1001F00001D0022008E00549C96804221140002905
:1002000001D0032000E004207047000000200240DD
:1002100003480069802108430149086170470000D4
:100220000020024078B506460C46042500200090C8
:100230000B20000400F03EF80546042D24D113489D
:100240000069012108431149086134800B20000432
:1002500000F030F80546042D10D1B01C0090200CA1
:10026000009908800B20000400F024F80546074898
:100270000069400840000549086105E0034800693D
:100280004008400001490861284678BD002002402E
:100290000548006980210840002804D0034802492D
:1002A00048600348486070470020024023016745CA
:1002B000AB89EFCD10B503460424FFF78BFF04464E
:1002C00003E0FFF787FF04465B1E012C01D1002BE2
:1002D000F7D1002B00D10524204610BDF0B50A4609
:1002E00000210023002400BF3DE001258D402B4666
:1002F00015681D402C469C4234D11579012D02D041
:100300001579022D16D185684F000326BE40B543EE
:10031000856055794E00B54086683543856085888F
:1003200001268E40B5438580858896798E40B6B289
:100330003543858005684F000326BE40B543056000
:1003400015794E00B540066835430560C5684F0015
:100350000326BE40B543C560D5794E00B540C6689A
:100360003543C560491C1029BFD3F0BDF0B500234B
:1003700000244D07EE0E1546B5402B46CD10AE00BD
:1003800005462035AD594E07F70E0F26BE40B54342
:10039000CE10B60007462037BD51CD10AE003D4609
:1003A000AD591D432C46CD10AD003E467451F0BDF5
:1003B00000BFFEE7F8B500250020009000240027CC
:1003C0002648FFF7BFFE800A401CC0B2009000988C
:1003D0000A2800DAF8BDFFF75BFF3420FFF7CEFEF6
:1003E000002433E0A1021E4A8818FFF7CDFE04283E
:1003F00001D000BFFEE7012189021A48FFF797FEEE
:10040000A00207221205811801229202154800F06D
:1004100035FAA00212494518124E00270CE0284672
:100420003168FFF7FFFE042802D12D1D361D01E0C3
:1004300000BFFEE7781C87B2FF2FF0DD0A48808AF4
:100440004021484008498882601C84B20098844258
:10045000C8DBFFF7DDFE00BFBCE700001004002092
:10046000001000080C00002000040048704770478E
:10047000002905D0054A52690243044B5A6104E041
:10048000024A52698243014B5A6170470010024090
:10049000002905D0054AD2690243044BDA6104E021
:1004A000024AD2698243014BDA6170470010024070
:1004B000002905D0054A92690243044B9A6104E081
:1004C000024A92698243014B9A61704700100240D0
:1004D000002905D0054AD2680243044BDA6004E0E3
:1004E000024AD2688243014BDA6070470010024032
:1004F00000B587B001218804FFF7BAFF0121880306
:10050000FFF7C6FF0120000300900121684601713A
:100510000021817101214171C17169462D48FFF7A8
:10052000DDFE072040030090022168460171002192
:100530008171032141710121C17169462548FFF78D
:10054000CDFE0120400323498861400088614000BE
:10055000886100220D211F48FFF708FF00220E21AD
:100560001C48FFF703FF00220F211A48FFF7FEFE89
:1005700001218803FFF79CFF002101208003FFF782
:10058000A7FF002168460181FF2105314181072134
:10059000090281810221C181012101824902418236
:1005A000382181820021C1820721018302A90A48E2
:1005B00000F042F801210903074800F089F8012101
:1005C000054800F021F8FF21034800F061F807B06A
:1005D00000BD0000000400480038004010B504468B
:1005E00007480088074908400549088008460088F0
:1005F000204308800121024800F006F810BD0000E9
:1006000000380040C7FF0000002904D002884023C2
:100610001A43028003E00288014B1A4002807047AF
:10062000BFFF00000246002013890B40002B01D0C1
:10063000012000E00020704710B500220288C1238D
:100640009B011A400B88CC892343CC8823430C8917
:1006500023434C8923438C8923431A430280828895
:10066000084B1A408B881A4382800B8A03820288C7
:10067000054B1A404B881A430280838B034C23405E
:10068000838310BDFFF00000FBFF0000FFF70000B8
:1006900070B504460D4600BF02212046FFF7C2FF99
:1006A0000028F9D02946204600F01CF800BF01219F
:1006B0002046FFF7B7FF0028F9D0204600F001F8E8
:1006C00070BD014600220A460C32107870470000C7
:1006D0008288034B1A40828082880A438280704756
:1006E000FFEF0000002202460C3211707047704785
:1006F0000CB50020019000903148006801210904E8
:1007000008432F49086000BF2D48006801214904B3
:10071000084000900198401C01900098002804D1E6
:100720000521090301988842EED12548006801217E
:1007300049040840002802D00120009001E0002078
:1007400000900098012839D111201E4908601C48EA
:1007500040681B4948600846406848600846406851
:100760007F21C90388431649486008464068112123
:100770000904084312494860084600680121090637
:1007800008430F49086000BF0D4800680121490671
:1007900008400028F8D00A484068800880000849CE
:1007A000486008464068022108430549486000BF88
:1007B000034840680C2108400828F9D10CBD00000E
:1007C00000100240002002407047000010B51B4896
:1007D0000068012108431949086008464068184923
:1007E0000840164948600846006816490840134901
:1007F0000860084600680121890488430F490860A1
:10080000084640683F21090488430C49486008466F
:10081000C06A00090001C8620846006BFF2154311C
:100820008843064908630846406B40084000486317
:1008300000208860FFF75CFF10BD00000010024040
:100840000CB8FF08FFFFF6FE10B5012000030949B0
:100850008861FFF74DFE0020FFF7C0FE00F03CF876
:100860000549088000F088F8002000F099F800F0B1
:1008700079F810BD000400480A000020F8B50646CB
:100880000C46174601200003114908810321114835
:10089000FFF7FEFE2002010E0E48FFF7F9FE2004CE
:1008A000010E0C48FFF7F4FEE1B20A48FFF7F0FE34
:1008B000002505E0FF210748FFF7EAFE70556D1C93
:1008C000BD42F7D301200003014920398861F8BDFA
:1008D000200400480038004010B500240120000327
:1008E0001149088190211148FFF7D2FE00210F48DD
:1008F000FFF7CEFE00210D48FFF7CAFE00210B488E
:10090000FFF7C6FEFF210948FFF7C2FE00020443BD
:10091000FF210648FFF7BCFE044301200003024903
:1009200020398861204610BD20040048003800406E
:1009300010B500240120000308490881052108485A
:10094000FFF7A6FEFF210648FFF7A2FE044601209E
:100950000003024920398861204610BD2004004868
:100960000038004010B500BFFFF7E2FFC007C00F1E
:100970000028F9D110BD000010B501200003064980
:10098000088106210548FFF783FE01200003024984
:100990002039886110BD0000200400480038004064
:1009A00010B50446012000030749088101210748CA
:1009B000FFF76EFE21460548FFF76AFE012000039F
:1009C00001492039886110BD2004004800380040EA
:1009D00002E008C8121F08C1002AFAD17047704708
:1009E000002001E001C1121F002AFBD17047000066
:1009F0001CB501218804FFF73BFD40200090012138
:100A0000684601718171032141710021C1716946FC
:100A10001948FFF763FCFFF717FF09221F2189041C
:100A20001648FFF72BFF1548FFF78CFB002808D06E
:100A30001248001DFFF786FB401C002801D0FFF77D
:100A4000B9FC0F4800680F49084001214907884256
:100A50000FD10B4840680C490860084600680B49F4
:100A600008600749086880F3088800BF07480068E5
:100A7000804700201CBD0000000400480C0400203A
:100A8000001000080000FE2F0400002000000020DD
:100A9000B00A0008000000200C000000D009000887
:100AA000BC0A00080C0000200C0C0000E009000843
:0C0AB0000000000000000000040013EF34
:04000005080000B53A
:00000001FF
